:10000000481D00201553000011530000115300003B
:1000100000000000000000000000000000000000E0
:10002000000000000000000000000000115300006C
:1000300000000000000000001153000011530000F8
:1000400011530000115300007D38000011530000CF
:100050008D25000011530000A5260000115300005B
:100060002D4A0000ED490000FD4900000D4A000046
:100070001D4A00000000000000000000E53F0000F5
:10008000F53F00000540000021430000314300001F
:10009000414300000000000000000000E1250000D6
:1000A000DD4A0000115300001153000011530000FD
:1000B0000000000010B5064C2378002B07D1054B3B
:1000C000002B02D0044800E000BF0123237010BDC4
:1000D000E003002000000000B8810000084B10B5CC
:1000E000002B03D00749084800E000BF0748036819
:1000F000002B00D110BD064B002BFBD09847F9E731
:1001000000000000E4030020B8810000B881000076
:10011000000000007047000010B50248024B9847ED
:1001200010BDC046FC03002089310000064B1B783F
:100130000020DB0706D5044B1B7834301840431EE3
:100140009841C0B27047C0464C04002010B5024828
:10015000024B984710BDC046FC03002089310000C7
:10016000F0B5CE4600B53048304B9847041E06D057
:100170002F48304B9847002004BC9146F0BD2E4BD1
:100180009847002803D12D482A4B9847F4E72C4B79
:1001900098470028F7D02B48264B984700272A4E2F
:1001A00013E02A48234B984701212800284B984701
:1001B000284A137801210B4313702748274B98478F
:1001C0004C460DE001370C2F1FD0FDB22800B04780
:1001D00081460028F6D02800214B98470028E0D01F
:1001E0001C4B1B789B07EDD51E48124B98470121ED
:1001F0002800174B9847174A137801210B431370B7
:100200001548164B98474C46DCE7002C07D0114A9E
:10021000137801210B431370134B9847B3E7134B2B
:1002200098470028F8D0F2E7100400201D310000A4
:100230003C6D0000F51F00003D170000E86D000058
:10024000091700006C6D000091170000A06D000000
:10025000C91700004C04002024040020C93000000D
:10026000AD170000C06D00004D0100001518000022
:1002700010B5014B984710BD61010000002805D161
:10028000054A137808218B4313707047024A13788C
:1002900008210B431370F8E74C040020024A13783E
:1002A00010218B43137070474C040020002805D1A7
:1002B000064A137840218B4313707047034A137822
:1002C00040210B43DF210B401370F6E74C04002064
:1002D000024B18784006C00F7047C0464C040020FF
:1002E00010B5034B9847034B1878C007C00F10BDDB
:1002F000610100004C04002070B5164B18800028E6
:100300001FD1154A137801218B4301318B430E31E4
:100310008B430C398B431C318B43137000240F4DDE
:10032000E0B20021A84701340C2CF9D10C4B9847BE
:100330000C4B98470C480D4B98470D480D4B984770
:1003400070BD0D4AFA239B004343936010000B4B92
:100350009847D6E7CC0A00204C040020C9170000BB
:100360004D0100003109000038040020C9300000B0
:1003700024040020593100001004002089310000BD
:1003800030B583B000201B4B984700221A4B1A80CF
:100390001A4B9847022828D0194A1A4B9A601948D4
:1003A00000240473184B0361184B9847184B194AE3
:1003B0009A601C73184A1A61184BFA25AD009D60AB
:1003C0001C73174A1A6101A901234B708C700B70C2
:1003D0000620144B98474022134B9A61134B9D60A3
:1003E0001C73134A1A6103B030BD124A054B9A6060
:1003F000D5E7C046F9020000CC0A00201D0B000022
:1004000060EA0000FC030020710200005931000086
:1004100038040020E093040095040000100400203C
:1004200019010000C54B00000044004124040020D5
:1004300015010000A0BB0D0010B50E4B98470E4BE8
:100440009847041E03D00D4B1B789B0707D50C4B18
:10045000984700200B4B98470024200010BD074A06
:10046000137802210B431370074B98470748084B3A
:100470009847F2E74D0100002D0100004C040020D8
:1004800041180000F9020000310900003804002082
:10049000C930000010B5014B984710BD3904000069
:1004A00010B5184B1B7849221A4221D00C2820D0B5
:1004B0000AD30D281AD1134A137820210B43137045
:1004C0001148124B984707E00E4A137804210B435A
:1004D00013700F480D4B98470A4A137802218B433B
:1004E00013700C480C4B98470C4B98470C4B984793
:1004F00010BD044A137810210B4313700948034BB5
:100500009847E9E74C040020206D0000F51F00002B
:10051000FC6C00003804002059310000AD080000D8
:10052000411800000C6D0000014B18887047C04650
:100530004C04002070470000024B1878C007C00F21
:100540007047C0464C040020044B1B7834201840F0
:10055000103843425841C0B27047C0464C04002096
:1005600010B50024064B1C700020064B9847064827
:10057000064B9847064B1C70064B984710BDC0466B
:10058000640400200517000050040020952F00008F
:100590006504002041180000094B1B78012B00D096
:1005A0007047002805D1074A136902218B43136164
:1005B000F6E7044A136902210B431361F0E7C046D2
:1005C0006404002000ED00E010B582B01448154B23
:1005D000984700281FD1144B1A68022193681942CA
:1005E000FCD1124B5362D362136802218B43136018
:1005F00006310D480E4B984701A980230B7000234C
:10060000CB7001244C708B7000200A4B98470A4B2A
:100610005C6102B010BD0248084B9847DBE7C0465A
:10062000680400201D310000280500200FFC0F0089
:10063000593F0000B152000000440041C9300000A1
:1006400010B50222024B1A70024B984710BDC046EB
:100650007D040020C905000010B504001F4B1B8855
:100660001F4A9A18D11752184A40022A0BDC1D4A19
:100670001288D12A07D81C490978012915D00132DE
:10068000184B1A8029E00021164A1180164A127868
:10069000002A0DD1023B114A13800CE0134B994202
:1006A00011D90022104B1A700DE000210D4A118063
:1006B00002330A4A1380094B19880D4B9942EDD831
:1006C0000122094B1A7020000A4B9847034B1A88E5
:1006D000520800212000084B984710BD0000002060
:1006E00090F8FFFF26050020020000206A0A0000A3
:1006F000F2060000F13E0000E13E000070B505008A
:100700000C002948294B984700284CD1002D40D097
:10071000082D32D8AD00264B5B599F46254D264EFD
:10072000264A27493000274B984729003000264B9E
:1007300098476A0800213000244B9847326804210A
:100740001F20E02593681942FCD15379834316D0CA
:10075000202B16D0402BF5D11571F3E7EE25ED00D7
:10076000DDE7FA25ED00DAE7194DD8E7194DD6E7B0
:10077000194DD4E7FA252D01D1E70025CFE7202335
:100780005371022193681942FCD1136802210B4373
:1007900013600548846001240473104B0361104BFF
:1007A0009847104B1C7070BD680400201D3100007C
:1007B000146E0000F20600002805002080040020CE
:1007C00000280042D53A0000F13E0000E13E000062
:1007D0006B0A0000930B0000DA0B000041060000DA
:1007E000593100007D04002010B50400094B1B782E
:1007F000FF2B0DD0084B9847064B1C700022074B6F
:100800001A70A400064BE35859881878054B98478E
:1008100010BDC0467C040020C9050000240500204E
:10082000386E0000FD060000F0B583B0154F164C81
:1008300039002000154B98470523A3720025E57267
:1008400001266672033B23769633E654A565943BF6
:10085000A3679C33E554220039000D480D4B98479F
:1008600001A94E708D700E7000200B4B98470B4BFA
:100870005E610B4B1D700B4B1D700B4B1D7003B05D
:10088000F0BDC046002800428004002089390000E5
:1008900028050020D53A0000C54B00000044004167
:1008A0007C040020240500207D04002010B5134B9B
:1008B0009847FF22124B1A70124C134A134920001A
:1008C000134B984713492000134B9847134A0021B4
:1008D0002000134B9847082212492000124B9847DA
:1008E0002268022193681942FCD1136802210B434C
:1008F0001360063103480D4B984710BDC905000031
:100900007C040020280500208004002000280042EC
:10091000D53A0000F2060000F13E00007903000025
:10092000E13E000059060000013F0000193F0000B1
:1009300010B500220A4B1A700A4B1A6802219368FC
:100940001942FCD1084B5362D362136802218B43D6
:10095000136006310348054B9847054B984710BD77
:100960007C040020280500200FFC0F00593F0000E8
:10097000C9050000014B18787047C0467C04002070
:1009800010B50F4B1B78834200D010BD00220C4BDA
:100990001A700C4B1A68022193681942FCD10A4B59
:1009A0005362D362136802218B4313600122074B09
:1009B0005A610748074B98470322074B1A70E4E730
:1009C0007C040020280500200FFC0F00004400419B
:1009D00068040020C93000007D04002010B50B4BD6
:1009E0001B78DB0703D52022094BDA6110BD094BC8
:1009F00098470028FAD0084B98470028F6D00D20D9
:100A0000064B98470020064B9847EFE7D00A002096
:100A10000044004115180000D1020000A1040000AC
:100A2000AD02000010B50120014B984710BDC04633
:100A3000AD02000010B50248024B984710BDC046F9
:100A40007C0500208931000030B585B0244B9847E3
:100A5000244AFF2303401370000A5070DB072DD493
:100A6000214DFA235B00AB6001AC20001F4B98477F
:100A70001F4BFA229A6000221A731E49196105233E
:100A800001936260043B23720233E372210005206C
:100A9000194B9847002205211848194B9847002107
:100AA0000520184B9847184BAB600F480123037380
:100AB000164B0361164B984705B030BD01A90123C1
:100AC0004B7000228A700B700520124B9847202231
:100AD000114B5A61D532FF32034B9A60E5E7C046AD
:100AE00019170000D00A002068050020B524000076
:100AF0007C050020250A0000C9240000350A0000FA
:100B0000412500006D250000B80B0000DD09000044
:100B100059310000C54B00000044004110B590B0B1
:100B200001AC21000020054B9847E37F181C022BE5
:100B300000D90220C0B210B010BDC0460D4C00005C
:100B40000222014B5A6170470044004110B5044B2A
:100B50001B6ADB0500D410BD0C20024B9847FAE756
:100B600000440041A104000070B5154B1B6A5B07EF
:100B700019D5144D832464002B5B012293432B531E
:100B80001148124B98472B5B9B0718D50D4A135BF6
:100B90005B0714D40B200E4B98470A490B5B0420CB
:100BA00003430B530BE00749832252008B5A012069
:100BB00003438B520748054B9847074B984770BD36
:100BC0000044004104000020D4750000F51F00001F
:100BD000A1040000F07500004D01000070B5154B38
:100BE0001B6A1B071AD5144DF0242B5B012293437B
:100BF0002B531248124B98472B5B9B0719D5F023B8
:100C00000D4AD35A5B0714D40A200E4B98470A4961
:100C1000F0228B5A042003438B520AE00649F0224B
:100C20008B5A012003438B520748054B9847074BCB
:100C3000984770BD00440041040000209C750000EE
:100C4000F51F0000A1040000B87500004D01000070
:100C500070B5154B1B6ADB061AD5144DDA242B5BD5
:100C6000012293432B531248124B98472B5B9B074F
:100C700019D5DA230D4AD35A5B0714D409200E4B39
:100C800098470A49DA228B5A042003438B520AE020
:100C90000649DA228B5A012003438B520748054B41
:100CA0009847074B984770BD00440041040000205E
:100CB00064750000F51F0000A104000080750000AD
:100CC0004D01000070B5154B1B6A5B041AD5144D1D
:100CD000C4242B5B012293432B531248124B984799
:100CE0002B5B9B0719D5C4230D4AD35A5B0714D439
:100CF00008200E4B98470A49C4228B5A042003430C
:100D00008B520AE00649C4228B5A012003438B52BE
:100D10000748054B9847074B984770BD0044004172
:100D2000040000202C750000F51F0000A104000045
:100D3000487500004D01000070B5154B1B6ADB03C0
:100D40001AD5144DAE242B5B012293432B5312482A
:100D5000124B98472B5B9B0719D5AE230D4AD35AEC
:100D60005B0714D407200E4B98470A49AE228B5AD2
:100D7000042003438B520AE00649AE228B5A01201D
:100D800003438B520748054B9847074B984770BD64
:100D90000044004104000020F4740000F51F00002E
:100DA000A1040000107500004D01000070B5154B46
:100DB0001B6A9B031AD5144D98242B5B0122934385
:100DC0002B531248124B98472B5B9B0719D598233E
:100DD0000D4AD35A5B0714D406200E4B98470A4994
:100DE00098228B5A042003438B520AE0064998222A
:100DF0008B5A012003438B520748054B9847074BFA
:100E0000984770BD0044004104000020BC740000FD
:100E1000F51F0000A1040000D87400004D0100007F
:100E200070B5154B1B6A5B021AD5144D82242B5BDF
:100E3000012293432B531248124B98472B5B9B077D
:100E400019D582230D4AD35A5B0714D405200E4BC3
:100E500098470A4982228B5A042003438B520AE0A6
:100E6000064982228B5A012003438B520748054BC7
:100E70009847074B984770BD00440041040000208C
:100E800084740000F51F0000A1040000A07400009D
:100E90004D01000070B5154B1B6A1B021AD5144D8D
:100EA0006C242B5B012293432B531248124B98471F
:100EB0002B5B9B0719D56C230D4AD35A5B0714D4BF
:100EC00004200E4B98470A496C228B5A0420034396
:100ED0008B520AE006496C228B5A012003438B5245
:100EE0000748054B9847074B984770BD00440041A1
:100EF000040000204C740000F51F0000A104000055
:100F0000687400004D01000070B5154B1B6ADB01D1
:100F10001AD5144D56242B5B012293432B531248B0
:100F2000124B98472B5B9B0719D556230D4AD35A72
:100F30005B0714D403200E4B98470A4956228B5A5C
:100F4000042003438B520AE0064956228B5A0120A3
:100F500003438B520748054B9847074B984770BD92
:100F6000004400410400002014740000F51F00003C
:100F7000A1040000307400004D01000070B5154B55
:100F80001B6A9B011AD5144D40242B5B012293430D
:100F90002B531248124B98472B5B9B0719D54023C4
:100FA0000D4AD35A5B0714D402200E4B98470A49C6
:100FB00040228B5A042003438B520AE00649402208
:100FC0008B5A012003438B520748054B9847074B28
:100FD000984770BD0044004104000020DC7300000D
:100FE000F51F0000A1040000F87300004D0100008F
:100FF00010B5134B1B6A1B0117D5124C638D0122D0
:10100000934363851048114B9847638D9B0716D512
:101010000C4B5B8D5B0712D401200D4B9847094A9E
:10102000538D04210B43538509E0064A538D01215A
:101030000B4353850748054B9847074B984710BD0E
:101040000044004104000020A4730000F51F0000CC
:10105000A1040000C07300004D01000010B5134B47
:101060001B6ADB0017D5124CA38A01229343A3828B
:101070001048114B9847A38A9B0716D50C4B9B8AA7
:101080005B0712D400200D4B9847094A938A04212C
:101090000B43938209E0064A938A01210B43938212
:1010A0000748054B9847074B984710BD004400413F
:1010B000040000206C730000F51F0000A104000074
:1010C000887300004D01000010B50020024B9847C6
:1010D0000248034B984710BD990500006C0600209C
:1010E0008931000010B50020024B98470248034B9D
:1010F000984710BD9905000058060020893100006E
:1011000010B50020024B98470248034B984710BD8A
:1011100099050000440600208931000010B5002028
:10112000024B98470248034B984710BD99050000B1
:10113000300600208931000010B50020024B98478E
:101140000248034B984710BD990500001C0600207B
:101150008931000010B50020024B98470248034B2C
:10116000984710BD9905000008060020893100004D
:1011700010B50020024B98470248034B984710BD1A
:1011800099050000F40500208931000010B5002009
:10119000024B98470248034B984710BD9905000041
:1011A000E00500208931000010B50020024B98476F
:1011B0000248034B984710BD99050000CC0500205C
:1011C0008931000010B50020024B98470248034BBC
:1011D000984710BD99050000B8050020893100002E
:1011E00010B50020024B98470248034B984710BDAA
:1011F00099050000A40500208931000010B50020E9
:10120000024B98470248034B984710BD99050000D0
:10121000900500208931000010B50020024B98474E
:101220000248034B984710BD990500009406002022
:101230008931000010B50020054B98470548064B42
:101240009847064A137802218B43137010BDC0469D
:10125000990500008006002089310000D80A00208E
:1012600010B5094B1B6A9B0506D40020074B984715
:101270000748084B984710BD00210020064B9847AF
:101280000648044B9847F6E700440041F902000085
:1012900024760000F51F0000E10200000C7600003B
:1012A00010B51C4B1B6A1B0508D41B4B1A78022176
:1012B0008A431A701B78DB0723D410BD164B1A78AB
:1012C00002210A431A701A7810218A431A701348AF
:1012D000134B9847134B98470F20134B9847134BCA
:1012E0009847002807D1124B98470022114B1A70DB
:1012F000114B9847E1E70120104B9847104B984756
:10130000F1E7104B98470028D7D00F480F4B98476C
:10131000D3E7C04600440041D80A0020BC060020A4
:10132000952F00004D0100008109000049050000D3
:101330009D020000D40A0020610500007D0200002B
:101340003109000039050000A806002059310000CD
:10135000F0B5D6464F464646C0B582B001AB002236
:101360001A709A705A700024274E284D1623634332
:10137000F05C01A9A84701340C2CF7D16420244B60
:1013800098470022204B984616201F270B3C994671
:101390009C461E0013E0030053434B44998AA1432B
:1013A000998203005343F318998A0225A94399822D
:1013B000998A0235A943998201320C2A1ED0030072
:1013C00053434146CB5CD9098A4600215546002D3E
:1013D00004D15909C9010F4DAA465144096A3B403D
:1013E00025009D402942D6D1030053436344998A86
:1013F0000125AA46554629439982D2E702B01CBC72
:1014000090469946A246F0BD04000020C54B00005E
:101410002D4B000000440041F0B5C64600B584B035
:1014200003AD01266E700024AC702E7029000120DF
:10143000914B98470222914B9A612C706E70AC7060
:101440008F4B984768468F4B98478F4BFA229A608C
:101450001C738E4919618E4B9A601C738D491961FA
:101460008D4BFA21C90099601C738C4919618C4B12
:101470009A601C738B4A1A6100218B4E1625FA3430
:10148000002398462B004B43F3189A899446DA8937
:1014900012046046024394609A899446DA891204E1
:1014A00060460243404610739A899446DA891204D2
:1014B000604602431F8A5B8A1B043B431361013170
:1014C0000C29DFD10B230093002401946B461C727E
:1014D0000326DE7269460B20744DA847092300934A
:1014E00001946B461C72DE7269460920A8476E4D56
:1014F000012616236343595BEB185A8812040A43EA
:1015000000929988DA8812040A4301926A46167298
:1015100003226946CA72187A644B984701340C2C2E
:10152000E7D103AC002626700123637021000B2055
:10153000514DA84721000820A847667021000720C8
:10154000A84764205A4B98474C4B1B6A1B0500D494
:101550007CE0584B1A7804218A431A701A780221C9
:101560000A431A70534B1A7808218A431A701A7862
:1015700008318A431A701A7810318A431A703F4B27
:101580001B6ADB056CD54B4A13781F398B431370EC
:101590000020494B9847494B984700220B21484867
:1015A000484CA04700210B20474DA84700220921A5
:1015B0004648A04700210920A847002208214448A6
:1015C000A04700220F214348A04700220D21424896
:1015D000A04700220C214148A04700220721404893
:1015E000A047002206213F48A047002201213E4893
:1015F000A047002200213D48A04700220E213C4880
:10160000A047002204213B48A047002203213A487A
:10161000A047002202213948A0470024224F162665
:10162000294D33006343FB18187A0021A847013481
:101630000C2CF6D103A900244C7007200E4B9847C0
:101640002F4B1C7004B004BC9046F0BD194B1A78A7
:1016500004210A431A701A7802218A431A7081E71A
:10166000144A137801210B4313700120124B984741
:10167000124B984791E7C046C54B0000004400411B
:1016800051130000B524000080060020A1120000C4
:10169000A80600204D0B0000BC060020410B0000F6
:1016A000940600206112000004000020C9240000FC
:1016B0002D4B0000D80A00207D0200009D02000092
:1016C00035120000412500006D25000019120000B0
:1016D000FD110000E1110000C5110000A91100007A
:1016E0008D1100007111000055110000391100002A
:1016F0001D11000001110000E5100000C9100000DC
:10170000D40A002070470000024B186A8005C00F01
:101710007047C04600440041024B18785B781B02BA
:1017200018437047D80A0020162343430248C018C4
:10173000808A80B27047C0460400002010B50F4870
:101740000F4B9847002807D10E4B1B6A1B050CD581
:101750000D4B1B789B0704D50B4B18788007C00FE7
:1017600010BD0648094B9847F6E7074B1B789B07C7
:10177000F2D40248054B9847EEE7C04680060020A9
:101780001D31000000440041D80A002059310000FA
:1017900000230B2806D8163343430348C018838A16
:1017A000DB07DB0F180070470400002000230B2824
:1017B00006D8163343430348C018838A9B07DB0FC0
:1017C000180070470400002010B50B2811D816220D
:1017D00042430F4B9B189A8A0424A2439A82002901
:1017E00008D1162343430A48C018838A0222934330
:1017F000838210BD162343430548C018838A022202
:1018000013438382838A012213438382F1E7C04614
:101810000400002030B500220020084D16210124CC
:1018200002E001320C2A08D00B005343EB181033AE
:101830009B889B07F5D52000F3E730BD040000200E
:10184000704770477047704710B5044B1B680822FB
:101850009A750348034B984710BDC0460009002005
:10186000540700208931000070B582B005000E00D9
:1018700000226B46DA80064C6B46991D2800A04773
:101880000028F9D16B4606331B88337002B070BD57
:10189000B346000070B505008CB2034E210028004D
:1018A000B0470028FAD170BD8D4600000FB430B5A6
:1018B000C3B00F4B1B681B6800209B0704D443B0C8
:1018C00030BC08BC04B0184747AB019380246400C7
:1018D000469A210002A8074DA847210002A8064BFE
:1018E000984782B202A90248044B98470120E6E7D4
:1018F0000009002009600000655E00001D4700002F
:10190000F0B5C64600B598B000240025664B1C70A3
:101910008022520065496648664B9847664B1922FB
:101920009A601C73654A1A6108AB8022D20508923E
:101930005C60FF221A819C72DC72FE3A24215A54A8
:1019400001315A5401315C5401315C549C620531BF
:101950005C545C611C820021D9761D765D76132172
:1019600099765D7705201A3158541A77E122520290
:101970001A62C4229203DA60012252421A635A6345
:101980004F4A9A634F4ADA634F4D504C08AA504968
:101990002800A0470028F9D14B4C4E4B1C604E4A02
:1019A0004E4B1A604E4A4F4B1A6008AA4849200015
:1019B000464B98474C4E3368986800214B4DA847DA
:1019C000336858680021A84725682800484B984785
:1019D0001F2318401E3B8340464A13602268D36988
:1019E000002BFCD12B680222904613432B60364C0F
:1019F000033241492000414EB0473125635D20222A
:101A00001343635502223E492000B047635D042220
:101A100013436355236808221A769A7506AE300080
:101A2000384B98470323737002274346B370364DF3
:101A300031002800354B984701226B461A7000236D
:101A400069464B708B70CB704A718B71CB7105936B
:101A50000B7180330B812E4B803304932368283322
:101A600003932C4C20002C4B9847210028002B4B33
:101A700098472B4BAB602B7C3B432B742A7829492E
:101A80008B5C3B438B542800274B9847002806D19A
:101A90002648274B984718B004BC9046F0BD01007B
:101AA0002448234B9847F3E7680700206C07002081
:101AB0006C0800206D32000054070020A51B0000B8
:101AC0000200120002001300000900205143000030
:101AD000000C0042B80C002095180000B40C002047
:101AE00069180000B00C002008020020C15C000052
:101AF000C949000000E100E049180000D947000092
:101B0000AD23000059270000F00B002069270000DA
:101B1000D4060020E00A0020E1290000892A000004
:101B2000391B0000A00900200D2900007476000078
:101B3000AD1800003876000010B50F480F4B9847DD
:101B4000002805D10E4B1B681B689B0704D410BDF1
:101B500009480C4B9847F5E780220B490B480C4B82
:101B600098470C480C4B98470028F0D001000B48D0
:101B70000B4B9847EBE7C046540700201D3100008F
:101B800000090020C9300000D40600206C080020A5
:101B900019350000F00B00200D290000747D0000B5
:101BA000AD18000070B5104B1B681B689B0700D474
:101BB00070BD0E4B98470E4C20000E4B9847626943
:101BC000002A0CD10A480C4B984704000B4B98474D
:101BD000002CEDD021000A480A4B9847E8E70A4953
:101BE0000A480B4B9847EDE700090020794C0000AC
:101BF000F00B0020952900000D290000B94C0000D1
:101C0000C0760000AD180000D40600206C0800204B
:101C100019350000F0B583B05D4B1B681B689B074E
:101C200001D403B0F0BD5B485B4B984784B2002CF5
:101C3000F7D05A4F5A4E574D38E00023584A137088
:101C4000584A1370802200215448574B9847E8E7C0
:101C5000564B1B78002B15D0514B1B78432B11D8BA
:101C60000133DBB2432B02D84D4A13701CE0002332
:101C70004B4A13704D4A13708022002147484A4B4B
:101C80009847CEE7464B1B781900444AD25CAA2AF3
:101C900022D0AB2A2CD00D2A36D0082A66D07F2B32
:101CA0006AD001333E4A1370002CBAD0013CA4B272
:101CB0003178791828003E4B98473A4B1B78002B17
:101CC000C6D0374B1B78432BDCD80133DBB2432B18
:101CD000B3D8334A1370E7E70022314B1A708032D1
:101CE00000212E48304B984701222E4B1A70DBE71B
:101CF00000222B4B1A708032002128482A4B98472B
:101D000001222A4B1A70CFE70023244A5354244A55
:101D10001370284B186800280BD01C001F4D264E4E
:101D200002222900B04700280CD010342068002877
:101D3000F6D12248224B98478022002117481A4B9F
:101D400098476EE715481F4B9847C0B26B46D8714D
:101D500007331B78DBB222799A4203D0A068184B74
:101D60009847E9E7E3680D489847E5E7002B9BD0E3
:101D7000013B0B4A137097E70022094B1A7080321F
:101D800000210648084B98470F480D4B98478BE7B2
:101D9000000900206C080020D53200007C080020DB
:101DA000FC080020FD08002019570000D106002083
:101DB0001D3700000C010020E95600008C76000061
:101DC000AD1800002D5E0000AC76000070B50D4D22
:101DD00028000D4CA0470D48A0470D48A0470D48CE
:101DE000A0470D48A0470D48A0470D48A0470D4803
:101DF000A0470D48A0470D48A0470D48A047280020
:101E0000A04770BD9C6D0000AD180000507A000026
:101E1000687A0000887A0000AC7A0000C07A00007E
:101E2000D47A0000EC7A0000FC7A0000187B0000F5
:101E30003C7B000010B50248024B984710BDC046DD
:101E40004C7C0000AD18000010B5C478303CE4B202
:101E50001C481D4B9847012C0DD0002C1ED0022C85
:101E600023D01A48184CA0471948A0471948A04742
:101E70001948A04710BD1948134B9847002100206E
:101E8000174B9847002803D016480F4B9847F1E7A7
:101E900015480D4B9847154B9847EBE70020144B1E
:101EA00098471448084B9847E4E7134B9847002895
:101EB00003D01248044B9847DCE70E48024B984782
:101EC000D8E7C046787B0000AD180000F87B000022
:101ED000187C0000287C0000387C00008C7B00000F
:101EE000E1020000A87B0000BC7B0000350500007B
:101EF000F9020000D87B000039040000E87B0000F4
:101F000010B582B004000322002101A80F4B9847AE
:101F1000E11C022201A80E4B98471022002101A8C3
:101F20000C4B98470400FF2101400B480B4B98478E
:101F30000B4B9847002801D002B010BD094B9847C1
:101F4000094B9847E0B2094B9847F5E7195700004D
:101F50003B5E0000895F0000387A0000AD18000089
:101F60002D0100007509000081090000E90700004B
:101F700010B590B0044B00930BAB0DAA02A9034817
:101F8000034CA04710B010BD307A0000207A00004A
:101F9000AD18000010B5074A4023D361126A1342FE
:101FA00003D10548054B984710BD0548034B98479A
:101FB000FAE7C0460044004120770000AD18000059
:101FC0000477000010B5084B1B78002B08D10122C4
:101FD000054B1A70044B19780448054B984710BDFF
:101FE0000022014B1A70F5E768070020FC7600001C
:101FF000AD1800000FB430B5C3B0144B1B78002BE4
:1020000003D1134B1B78002B04D0124B1B681B68A9
:102010009B0704D443B030BC08BC04B0184747AB9E
:10202000019380246400469A210002A80A4DA84723
:10203000210002A8094B984782B202A90548084B23
:1020400098470022024B1A70E4E7C0466807002058
:10205000D00600200009002009600000655E000035
:102060001D47000010B582B001AC00232380C11CC5
:10207000012220000D4B98471022002120000C4B1C
:10208000984704000B480C4B9847230701D002B037
:1020900010BD0A480A4B9847BFF34F8F094A0A4BB5
:1020A000DA60BFF34F8FC046FDE7C0463B5E0000DD
:1020B000895F0000487B0000AD1800005C7B0000D9
:1020C000F51F00000400FA0500ED00E0F0B589B04E
:1020D0006748684B98473823674AD35CDBB2402B8C
:1020E00000D1ACE0202B00D1ADE0042B00D1AEE05C
:1020F000022B00D1AFE0012B00D1B0E05F485D4B77
:1021000098475F4B984704005E485A4DA847210006
:102110005D48A84707AB1C80E4B201212140303163
:102120005A48544B9847A107C90F30315848514B72
:1021300098476107C90F30315648574B98472107D8
:10214000C90F30315548544B9847E106C90F30311B
:102150005348514B9847A406E40F210030315148B1
:10216000444B9847504B9847002800D17BE04F489C
:10217000404B98474E483F4DA8474E4B19784E4824
:10218000A8474E4B984704004D48A8476B461C8013
:10219000E4B20121214030314A48364B9847A1072B
:1021A000C90F30314848334B98476107C90F303168
:1021B0004648304B98472107C90F303144482D4BD2
:1021C0009847E106C90F303142482A4B9847A1068B
:1021D000C90F30314048274B98476406E40F21006F
:1021E00030313E48234CA0473D48A04700243D4F96
:1021F00001ADA0B2B84702006600705321003A4812
:102200001C4B9847715DC907C90F30313748194BCE
:102210009847715D8907C90F30313548154B98478C
:10222000715D4907C90F30313248124B984701346C
:102230000C2CDED130480F4B984709B0F0BD2F4829
:102240000C4B98475DE72E480A4B984759E72D48B5
:10225000084B984755E72C48064B984751E72B48C1
:10226000044B98474DE72A48024B984782E7C046FF
:102270003C770000AD18000000040040D477000057
:1022800019170000F4770000087800001C7800009F
:102290003078000044780000F51F00005C780000F2
:1022A0007078000084780000091700009C78000016
:1022B000CC78000068070020E478000029050000C1
:1022C000F078000000790000107900002479000007
:1022D00038790000507900006879000088790000A2
:1022E000A879000029170000BC790000DC79000003
:1022F000F0790000FC7900000C7A00004C770000B7
:1023000064770000847700009C770000B4770000B9
:10231000B478000070B50022194B1A70194D2C6862
:102320002000194B98471F2318401E3B83408022F2
:1023300016498B502A68D369002BFCD123680225EB
:10234000AB4323600F4931228B5C062083438B54BF
:102350000F48104B9847104C2000104B9847237C97
:10236000AB43237422780E49885C052303408B54C9
:102370004C230C4AD55420000B4B984770BDC046E7
:102380006807002000090020C949000000E100E0C2
:1023900054070020C9300000F00B002095290000F0
:1023A000A009002000480041B128000010B5024BF0
:1023B0009847024B984710BD1523000001190000F3
:1023C00070470000044BDB795BB2002B02DBA522D7
:1023D000014B1A727047C0460010004000B583B030
:1023E0000E4AD3795BB2002BFBDB00236A461370E5
:1023F000012269464A700B32CA700B7103338B702D
:1024000008334B7100210648064B98470020064BC5
:1024100098476846054B984703B000BD0010004040
:10242000C1230000493800005D3800004937000032
:10243000044A137802210B43137053785BB2002BCC
:10244000FBDB70470018004000B583B0124A936967
:1024500040210B43936101A904230B7005200F4B0E
:10246000984705200E4B98470E4A137801210B43DD
:10247000137053785BB2002BFBDB0B4B1900403120
:10248000002204C39942FCD11022084B1A60084B69
:10249000984703B000BDC0460004004089510000C9
:1024A000FD50000000180040140C002000E100E086
:1024B0003124000000230360436001220272427253
:1024C00083720233C3727047F0B583B005000C000D
:1024D00001A900234B70CB7023790B70237A8B708A
:1024E0002078154B984700201F2D00D8134807224D
:1024F0002A409200E77AA37A002B01D008231F43D9
:10250000EB089B00C31899690F269640B14397408A
:102510003A000A439A61637A002B06D1436901228B
:10252000AA409343436103B0F0BD42690123AB402D
:1025300013434361F7E7C046B15200000018004062
:102540001723002A01D0180070478B00064A9B58B9
:10255000002B03D0834205D01D23F4E78900885067
:102560000023F0E70023EEE7140C002017230029D6
:1025700001D01800704700221F2800D8024A01230A
:102580008340D3600023F4E70018004070B50022B8
:10259000104B1A70002310491F25104E0D4C0AE0F5
:1025A0000D4908E023780133DBB223700F2B10D8DC
:1025B00000211F2BF4D9280018400122824008690D
:1025C0001042EFD00A619B009B59002BEAD098473C
:1025D000E8E770BD540C002000180040140C0020E7
:1025E00070B52F4B1D682B681A7EDC7D1440E20706
:1025F00016D4630708D504232A681376EB7E9B075D
:1026000002D5AB7E9B0742D4A30708D502232A68D4
:102610001376EB7E5B0702D5AB7E5B073BD470BDC8
:1026200001221A762A68537E5BB2002BFBDB6969B4
:102630008B1C6B61538B9BB20B802B8B013B9BB232
:102640002B83002B11D06B7F002BD2D02A68537EB6
:102650005BB2002BFBDB137B02210B4313732A6855
:10266000537E5BB2002BFBDBC3E701232A68937523
:102670002B7F052BBDD100232B77EB7EDB07B8D555
:10268000AB7EDB07B5D52800AB689847B1E72800DB
:10269000EB689847B8E72B6928009847BFE7C04622
:1026A000580C002010B5264B984726490B8C0F225A
:1026B00013409B002448185803781A403F23CA54FB
:1026C0000F33CA5CD2B203781B012049C91849886C
:1026D0001F4CE3185B88CB1A4361D3070FD5012148
:1026E0004E23184AD1543E3B4374037CDB0703D589
:1026F0004368002B00D09847164B984710BD9307AE
:102700000DD502214E230F4AD15400234374037C7C
:102710009B07F1D58368002BEED09847ECE7530771
:10272000EAD504214E23074AD154483B4374037C25
:102730005B07E1D5C368002BDED09847DCE7C046D5
:10274000794C00000048004134090020600C002052
:1027500050090020B94C000000230370437003228D
:102760008270C37003717047F8B5CE46474680B596
:1027700005000E00454B9847454B1B78002B18D1A0
:10278000444B5A6920210A435A61DA6910390A43D5
:10279000DA61414B1A880E398A431A8001221A8065
:1027A0003E4A5A633E4A9A633E4A1A80384B012297
:1027B0001A70364B9847364B5B68DA070FD55B08C3
:1027C000012401221A420BD05B080134E4B2052C2B
:1027D000F8D1354B9847344B9847142051E00024EA
:1027E0002B4A51680123A3400B435360137A013BEA
:1027F00013722D4B9847FF2CEDD02C700F23984669
:102800001C40254F30339946FC540133FA5C0221B9
:102810008A43FA540124FC541C4B98472B784246B7
:1028200013404A46BB543B692A789440A3433B611A
:10283000327852016023134072781202FC21890120
:102840000A401343B2789205C02109040A40134399
:10285000F178002904D007220A4008210A431343D3
:102860003279002A01D0102213430B4A53640E4CD4
:10287000A0470023AB612B789B000C4A9D50A047DA
:1028800000200CBC90469946F8BDC046794C00002B
:10289000DC0100200004004000480041600C0020E2
:1028A00050090020020F0000B94C0000340900203C
:1028B00010B50400114B9847637C052B0AD0104BD0
:1028C0005A68217801238B401A4207D10D4B984753
:1028D0001F2010BD0B4B98470520FAE7084A5168A6
:1028E00099435160137A0133137223789B000021BE
:1028F000054A9950034B98470020EAE7794C0000BD
:10290000DC010020B94C00003409002070B504003F
:10291000194B9847637C052B08D0A3695B889BB251
:10292000002B07D1154B9847172070BD134B9847C4
:102930000520FAE74026124B1E6022780F23134031
:10294000104D3F22AB5423780F4AD25C072313402B
:102950004D22AB5405236374207800010B4BC01843
:10296000A1693D3A0A4B9847AB5D02221343AB5530
:10297000024B98470020D8E7794C0000B94C000082
:1029800000E100E000480041A0090020600C0020A8
:102990000757000010B504000C4B984722780F230E
:1029A00013400B4A3F21535400214023D154094B7B
:1029B000984723781B01084AD21852880749CB1838
:1029C0005B88D31A63610423637410BD794C0000E3
:1029D00000480041B94C0000600C00205009002064
:1029E000F0B50A780388012632400124A34313433B
:1029F00003804B78048803273B405B000622944306
:102A00001C4304808D7804883D40ED0018239C43CE
:102A10002C430480CA7803883A401202164C2340A3
:102A2000134303800B79048833409B02134A1440FC
:102A30001C4304804D7904883540ED02104B1C4046
:102A40002C4304808A790388324012030D4C2340C2
:102A500013430380CB7907221A4003885203DB0417
:102A6000DB0C134303800B894380CB6843600B6905
:102A700083604B69C360F0BDFFFCFFFFFFFBFFFFFE
:102A8000FFF7FFFFFFEFFFFF427C0523052A0BD076
:102A90008369002B0AD0DA68002A03D0DB68DA6881
:102AA000002AFBD1D9600023180070478161002300
:102AB000FAE7F0B5DE4657464E464546E0B587B0E4
:102AC0008046049116001F000022002300218B463F
:102AD0003F2401202100009601975C460394444660
:102AE000059413E02024641A0500E540A84614E08C
:102AF000009C019D121BAB415C464D462C43A346F6
:102B0000039C45462C430394013925D32024644279
:102B10000C19E7D40500A540A84604008C40A14646
:102B200092185B4114001D00059E4F463E40B4467E
:102B3000049E47463E40B246664657463E4303D053
:102B40000600264332002B00009C019D9D42DBD8ED
:102B5000CED19442D8D8CBE7039B5846190007B092
:102B60003CBC90469946A246AB46F0BD10B549081C
:102B700040230024814202D2180010BD1C00091A13
:102B8000631C9BB28842F9D94023FF2CF4D81480EF
:102B90000023F1E7F0B583B00F00160008AA117802
:102BA00004004C434022BC4202D9100003B0F0BDE7
:102BB000002B14D1020008000021194CA04701008D
:102BC0003A0000230020174CA04700220123121ACC
:102BD0008B41120C1B041A4332800022E5E70022CD
:102BE000012BF9D10A00002300210D4CA04702005F
:102BF0000B0000920193380000210A4CA047050009
:102C000080239B0140229842CFD8790FF800009A88
:102C1000019BA047EA00821AD2B252032A43DBE7A3
:102C2000F1550000B32A000010B582B004000E4B2D
:102C30001B78002B07D0002905D10B4B5B78834212
:102C400010D01D200CE001A90C701320074B9847F1
:102C50001320074B9847044B5C7001221A70002028
:102C600002B010BD0020FBE7A80900208951000038
:102C7000FD5000002B4B984223D00FD92A4B98428D
:102C80002FD02A4B984242D101293AD0002946D070
:102C9000022938D0032938D0002039E0244B98424B
:102CA00035D1012907D0002933D0022905D00329C5
:102CB00005D000202CE01F482AE01F4828E01F48CC
:102CC00026E0012907D0002925D0022905D00329B3
:102CD00005D000201CE01A481AE01A4818E01A48EB
:102CE00016E0012907D0002917D0022905D00329B1
:102CF00005D000200CE015480AE0154808E015480A
:102D000006E0154804E0154802E0154800E0002000
:102D100070471448FCE70320FAE71348F8E7134824
:102D2000F6E7C046000C00420010004200140042CA
:102D3000000800420300050003000600030007002E
:102D40000300010003001E0003001F000300090030
:102D500003000A0003000B0003001100030012002F
:102D60000300130003000400030008000300100028
:102D700030B585B06A460F4B32CB32C21B68136048
:102D80000300009A824211D0019A82420AD0029A2C
:102D9000824209D00020039A9A4201D005B030BD8A
:102DA000033004E0012002E0022000E00020C0B275
:102DB000F4E7C046B07D0000F0B5C64600B50C0093
:102DC000904600280FD1002A11DD8F18094E0A4DB8
:102DD000306821002B6898470134BC42F8D1404646
:102DE00004BC9046F0BD01235B429846F7E780465D
:102DF000F5E7C046B80C0020B00C0020F0B5C64680
:102E000000B50E0015000138022810D8002A11D094
:102E100000240C4B98460C4F43461868315D3B68C4
:102E20009847002808DB0134A542F5D106E00124CB
:102E3000644203E0140001E001246442200004BC69
:102E40009046F0BDB80C0020B40C002010B5024B29
:102E50009847024B984710BD5D320000E92F0000F3
:102E600070B5214A002300219370138100209072D5
:102E7000D17211739173517311745361936111770E
:102E80001362536213859385012555702033937126
:102E90001B3B1370A023DB0093807D235385134CD1
:102EA00013492000134B9847022213492000134B6B
:102EB00098472068124B9847124B1A5C1F23134007
:102EC0009D40114B1D60637E102213436376226880
:102ED00010235373D37B5BB2002BFBDB13880221DF
:102EE0000B43138070BDC046BC0C0020F00C0020CA
:102EF000002C00424D4000004D2E00008942000091
:102F000015400000C07D000000E100E070B5040045
:102F1000154B9847154B1D68002D1ED0A268696897
:102F20008A4209D32800521A0368002B08D0596836
:102F3000914203D81800F6E72B000020891A596047
:102F40006260002805D0036823600460084B98473E
:102F500070BD2560054B1C60F8E700232360A36863
:102F60006360024B1C60F1E7794C0000AC09002063
:102F7000B94C000010B50024034B1C60034B98476C
:102F8000034B1C6010BDC0460C0D0020612E0000DC
:102F9000AC09002010B50400104B9847104B1A687C
:102FA000002A14D0A24215D01368002B0FD09C42E7
:102FB00001D01A00F8E7002A0CD0236813602368B8
:102FC000002B04D0626859688C4662445A60054BF5
:102FD000984710BD024B22681A60F0E7794C000058
:102FE000AC090020B94C0000F8B5104A1368013351
:102FF000136001250E4E370005E020000D4B984769
:103000000DE0200098473468002C0ED063689D4284
:1030100009D3ED1A23683B60237B012BEDD0236994
:10302000002BEED1EFE75B1B6360F8BD0C0D0020B9
:10303000AC0900200D2F000070B50400154B984717
:10304000154B1D68002D1ED0A26869688A4209D3FD
:103050002800521A0368002B08D05968914203D8FF
:103060001800F6E72B000020891A596062600028DA
:1030700005D0036823600460084B984770BD256045
:10308000054B1C60F8E700232360A3686360024BD4
:103090001C60F1E7794C0000B4090020B94C000035
:1030A00010B50024044B1C70044B1C60044B984763
:1030B000044B1C6010BDC046100D0020B00900205C
:1030C000612E0000B409002010B50400104B984791
:1030D000104B1A68002A14D0A24215D01368002B96
:1030E0000FD09C4201D01A00F8E7002A0CD02368C8
:1030F00013602368002B04D0626859688C466244D0
:103100005A60054B984710BD024B22681A60F0E7E1
:10311000794C0000B4090020B94C000010B504003F
:103120000A4B98470A4B1B68002B0AD0A34204D0D5
:103130001B68002B05D09C42FAD1064B9847012012
:1031400002E0044B9847002010BDC046794C0000B7
:10315000B4090020B94C000010B50400064B984794
:103160002000064B9847002802D0054B984710BD19
:103170002000044B9847F8E7794C00001D3100000F
:10318000B94C00003930000010B50400084B9847D6
:103190002000084B9847002805D12000064B98478F
:1031A000064B984710BD2000054B9847F5E7C046F1
:1031B000794C00001D31000039300000B94C00008E
:1031C000C9300000F8B51F4B1B78002B00D1F8BDAB
:1031D0001D4EB0471B4B1C78E4B200221A701B4BEB
:1031E000984725001A4B1A68944664441C60B047FF
:1031F000184B1C68002C22D063689D421CD3154FCD
:10320000124E0EE02000144B984710E02000984723
:103210000D4B98470F4B1C68002C10D06368AB42D5
:103220000AD8ED1A23683B60237B012BEAD0B04714
:103230002369002BEAD1EBE763685D1B6560034BF4
:103240009847C4E7100D0020794C0000B94C0000ED
:10325000B0090020B409002039300000024A137878
:103260000133DBB213707047100D002070B50400FD
:103270000D00160000280CD0002910D0002A14D010
:103280000D4B98472560AD1965600023A360E3608E
:1032900070BD0A4B0A4A22210A480B4CA0470B4B2F
:1032A000074A23210748084CA047094B044A242118
:1032B0000448054CA047C0462D370000BC7E0000E6
:1032C000C47D0000C07E000045560000D87E00008E
:1032D000E07E000070B5041E24D00368002B27D0C8
:1032E0004368002B2AD01F4B9847A368002B0DD0B2
:1032F000A26823689A4227D3A1686268914223D2C8
:10330000E1688B4220D8E3689A421DD9A368002B5C
:1033100025D0E568A368ED1A002D1BDD124B9847F8
:10332000280070BD114B124A56211248124CA0477A
:10333000124B0F4A57210F480F4CA047104B0C4A15
:1033400058210C480C4CA0470E4B094A62210948F1
:10335000094CA047636822689B1AED18DEE7002538
:10336000DCE7C046313700003D370000BC7E00007E
:10337000D47D0000C07E000045560000407E000065
:103380004C7E0000547E000070B500280AD005680D
:10339000002D0DD04468002C10D00B4B9847641BB7
:1033A000201A70BD094B0A4A75210A480A4CA047E9
:1033B0000A4B074A76210748074CA047084B044AA6
:1033C00077210448044CA047D5320000BC7E0000A1
:1033D000E47D0000C07E000045560000407E0000F5
:1033E0004C7E0000F0B5D646474680B583B0041E3B
:1033F0000191904624D00368002B27D04368002B0E
:103400002AD03B4B9847A368002B0DD0A2682368B5
:103410009A4227D3A1686268914223D2E1688B4225
:1034200020D8E3689A421DD9A368002B20D0A26857
:10343000E3689A4221D9E768A3689A46002533E0F9
:103440002C4B2D4A99212D482D4CA0472D4B2A4A13
:103450009A212A482A4CA0472B4B274A9B212748D0
:10346000274CA047294B244AA5212448244CA04797
:103470002768A76063689A46E0E7A268E3680025CA
:103480009A4215D2E66863682768A2689246002EC1
:103490000AD09D1B454500D945462A0001993000B8
:1034A0001B4B98477619E660002F01D045450BD39A
:1034B000E3686268934218D0164B9847280003B01F
:1034C0000CBC90469A46F0BD43465B1B5246D61B49
:1034D0009E4200D91E00019B5919320038000C4B46
:1034E0009847AD19BE19E660E2E72368E360E3E7B9
:1034F00031370000BC7E0000F87D0000C07E000077
:1035000045560000407E00004C7E0000547E0000C6
:10351000075700003D37000070B505000E0014008D
:103520000D4B984728000D4B9847A04210D322001E
:10353000310028000A4B9847844203D1094B984731
:10354000200008E0084B094AEA210948094CA04735
:10355000044B9847002070BD3137000089330000CC
:10356000E53300003D370000F87E0000087E0000D3
:10357000C07E000045560000F0B5D646474680B5EF
:1035800083B0041E0191904625D00368002B29D0FA
:103590004368002B2DD03E4B9847A368002B00D1E9
:1035A00073E0A368002B0DD0A26823689A4227D34A
:1035B000A1686268914223D2E1688B4220D8E36817
:1035C0009A421DD9A268E3689A4220D2A768E368AC
:1035D0009A4600252EE02F4B2F4A892149002F487B
:1035E0002F4CA0472F4B2C4A1421FF312B482C4C39
:1035F000A0472D4B284A8A2149002848284CA0473B
:103600002A4B254A2021FF312448254CA047A66893
:1036100063682768E26892460025002E0AD09D1B49
:10362000454500D945462A0031000198204B98476E
:103630007619A660002F01D045450FD3A3686268B4
:1036400093421CD0A268E3689A421BD0194B98475A
:10365000280003B00CBC90469A46F0BD43465B1B65
:103660005246D61B9E4200D91E00019B58193200BB
:1036700039000F4B9847AD19BE19A660DEE72368E5
:10368000A360DFE70023A360E0E70025DEE7C04694
:1036900031370000BC7E00001C7E0000C07E0000B0
:1036A00045560000407E00004C7E0000547E000025
:1036B000075700003D370000F8B504000D00170063
:1036C0000E4B984720000E4B98470023B8425B41B1
:1036D000DEB2B84206D33A0029002000094B9847D1
:1036E000874203D1084B98473000F8BD074B084A82
:1036F000AC2149000748084CA047C04631370000BC
:10370000D5320000793500003D370000F87E00001A
:103710002C7E0000C07E00004556000010B501223E
:10372000014B984710BDC046B936000070470000F5
:1037300010B5014B984710BD794C000010B5014BF6
:10374000984710BDB94C000010B582B00400394A4A
:10375000936910210B439361374B1B785BB21020A8
:10376000002B03DBE3780730002B01D102B010BD42
:1037700022799A42FAD862799A42F7D82E4A137877
:103780000E398B431370D3795BB2002BFBDB63786C
:103790000020002BEAD001A9A3780B700330274B3F
:1037A00098470320264B98472378002B27D1E378AE
:1037B000013B2279002A26D01F490A7804200243BF
:1037C0000A702279013A824013431B49CA7952B2E6
:1037D000002AFBDBDBB2184A53706379002B18D147
:1037E0002378002B1FD0144A137880210B431370C9
:1037F000114AD3795BB2002BFBDB0020B6E7032034
:10380000104B9847D3E70C490A78042082430A708A
:10381000DBE71100CA7952B2002AFBDB013BDBB2C5
:10382000054A9370DCE7044A137802210B431370B6
:10383000DEE7C0460004004000100040895100004F
:10384000FD500000A5510000002901D0172070474D
:10385000014B18600020FAE7140D0020002801D069
:10386000172070470122034B5A710332024B1A6032
:10387000F7E7C0460010004000E100E010B501226B
:10388000034B9A71034B1B68002B00D0984710BD67
:1038900000100040140D0020094B98420CD0094B39
:1038A000984207D0084A0023904201D01800704780
:1038B000023302E0012300E00023DBB2F6E7C0465A
:1038C000002000420024004200280042F8B50F000A
:1038D00015001E0004682000164B9847164B1A5C12
:1038E0001723BA4201D81800F8BD8000134BC25804
:1038F0001723AA42F7D3002E10D080225202BA40DA
:10390000236B1A42FCD180221203BA40A3681A42E8
:10391000FCD11C37BF003D510023E4E78022520058
:10392000BA40A3681A42FCD11037BF00E4196560A1
:103930000023D8E799380000187F0000207F00009E
:1039400070B50E001500046820000D4B98478000EC
:103950000C4BC3581720B34200D270BD002D07D0C6
:103960008022D202A3681342FCD1E6660020F4E76D
:103970008022A3681A42FCD126640020EDE7C046ED
:1039800099380000207F000010B5040008004F4B5C
:1039900098470023236080004D4A82586260A372DA
:1039A000E372237363722372E36123626362A3622F
:1039B00023756375A375E375237663762374637447
:1039C000A374E3742C22A3540132A3540132A354F0
:1039D0000132A3540132A3540132A3540132A3543F
:1039E0000132A3540132A3540132A3540132A3542F
:1039F0000132A3540132A3540132A3540132A3541F
:103A00000132A3540132A3540132A3540132A3540E
:103A10000132A3540132A3540132A3540132A354FE
:103A20000132A3540132A3540132A3540132A354EE
:103A30000132A3540132A3540132A3540132A354DE
:103A40000132A3540132A3540132A3540132A354CE
:103A50000132A3540132A3540132A3540132A354BE
:103A60000132A3540132A3540132A3540132A354AE
:103A70000132A3544132A354A365A3670132A35476
:103A8000E365E3670132A35423661A3AA3501B325D
:103A9000A3546366173AA3501832A354A366143A8A
:103AA000A3501532A354E366113AA3501232A35423
:103AB00023670E3AA3500F32A35463670B3AA35007
:103AC00001210C32A1540132A35410BD99380000D9
:103AD000207F0000F0B5DE4657464E464546E0B52D
:103AE00091B001900C0015000800C34B98470300EB
:103AF0000100C248026A9E00C14FF7593A43026270
:103B000022681C20920706D511B03CBC904699460D
:103B1000A246AB46F0BD226801271740F4D1B94850
:103B2000325817202E68B242EED36E68B242EBD301
:103B3000E869824200D2B9E1286A824200D2B7E144
:103B4000686A824200D2B5E1A86A824200D2B3E13B
:103B500098229446AC4462460892002003E001306B
:103B60000132082808D01678002EF8D0A64E765CD0
:103B70008642F4DC1720C7E700220292802040042E
:103B8000844602E00132042A0ED0A818007C0128E5
:103B9000F8D19E48405C904200DA8FE16046904048
:103BA000029E06430296EDE79D32AA5C002A04D0ED
:103BB000802212010299114302912A7A511E8A41F0
:103BC000920006926A7A012A22D0904AD25C1100B1
:103BD00005923522AA5C8A4200D379E12C21695CE6
:103BE0000F2900D974E1287B0A90E87A0B902D20E8
:103BF0008246AA44002004970EAE0796C0263601DE
:103C0000B1468446A046280055460993824635E0D1
:103C1000069911430691D8E792024F463A400A436B
:103C200019798B4603215F4639400A4316435A7976
:103C3000520160210A40324399790902C026B60038
:103C40000E401643DA791203E021C9010A401643F7
:103C50003443039A14432043624607995050042A80
:103C60002AD09A7C0599914200D831E1597A0A35D7
:103C700004239B46DC440F2900D929E10906F023DF
:103C80001B0519402B002E783604FF200004064047
:103C900068788024002800D1049C9878082703972E
:103CA000002801D104980390D878834610205F46FD
:103CB000002FB1D10498AFE744465546099B524ABC
:103CC000D25C914651465031504641300027002287
:103CD0000126B2460226FF36B34680267602B0465B
:103CE000A4461C004B460FE00678002E07D09342F6
:103CF00000D8E7E0022E14D05646964037430132F2
:103D000001310230082A10D00E78002EECD09342F8
:103D100000D8D5E04646964037430678002EE9D1D4
:103D2000EDE75E4696403743E9E79946230064464F
:103D30006A7E120130211140287E07220240114381
:103D40000022802040020E0002E00132042A0BD043
:103D5000A918097D0029F8D00599914200DCB3E04B
:103D6000010091400E43F0E7B24601980200043290
:103D70003430002102C28242FCD100220198426309
:103D800082639900224A88500460A022A95C643AA8
:103D900081540DA9AA7A0A701E4AD65C30001E4BC7
:103DA000984730001D4B98474B46002B3CDD2E00BA
:103DB000583698339846A84401239946AB46454661
:103DC000A046089C03E001340436AC422AD0237894
:103DD000002BF8D00CAB4A469A7000230CAAD37083
:103DE00013002022B21812781A704A465A7030789E
:103DF00019000B4B9847E6E7993800000004004093
:103E00000C7F0000207F00002C7F0000187F000046
:103E1000180D00201C7F000089510000FD5000009B
:103E2000B152000044465D460A9B1B030B9A1202E6
:103E30001343029A134323600422A3681A42FCD15D
:103E4000FF2323710422A3681A42FCD16B461B7E18
:103E500063710E9BE3600F9B2361A7611D4AA368FA
:103E60001342FCD15346E3631022A3681A42FCD1EB
:103E70002B686363184AA3681342FCD16B68236400
:103E80000598002822DD1C350021144E32008A409E
:103E9000A3681A42FCD104CD0B0010339B00E31839
:103EA0005A6001318842F1DC00202DE617202BE614
:103EB000172029E6172027E6172025E6172023E6F6
:103EC000172021E617201FE617201DE600201BE61D
:103ED000172019E6400002008000040000010800DD
:103EE00010B53C23C35C014CA04710BDCD38000089
:103EF00010B53C23C25C014B984710BD413900000E
:103F0000920083185960034BD358426B13434363A9
:103F100000207047307F000070B504000D0000687D
:103F2000094B9847094B1B5C1F221A400123934001
:103F3000074A1360AD00074BEA58A36B1343A36312
:103F400023689A6270BDC04699380000607F000007
:103F500000E100E0307F000070B504000D00006853
:103F6000094B9847094B1B5C1F221A4001239340C1
:103F7000802207498B50AD00064BEA58A36B934350
:103F8000A36323685A6270BD99380000607F000007
:103F900000E100E0307F0000F0B5C64600B58000CB
:103FA0000E4BC7583B68DE6ABB6B7A6B13401E40F2
:103FB00000240B4B984602E00434302C0AD04346D0
:103FC000E5583542F8D03B195B68380098473B68A4
:103FD000DD62F1E704BC9046F0BDC046180D00203C
:103FE000307F000010B50020014B984710BDC0463F
:103FF000993F000010B50120014B984710BDC04605
:10400000993F000010B50220014B984710BDC046F3
:10401000993F000030B585B001AA0B4B32CB32C2BC
:10402000019B98420DD0029B984208D00023039A2E
:10403000824202D0180005B030BD023302E00123F5
:1040400000E00023DBB2F5E7647F0000F0B587B045
:1040500004000D0016000800854B9847070005ABCB
:104060001B221A7001325A709A7003AB802212011F
:104070001A80802252015A80802292019A80002365
:10408000A360E36023616361237663768200794BEA
:10409000D4502560B378082B06D023712B880520D7
:1040A000DB0705D507B0F0BD1720FA07FAD5F4E70E
:1040B000EB7B1730DB06F5D42B889B07F2D4337CDF
:1040C000002B79D1337F002B00D081E06A49086A48
:1040D0007A0003ABD35A03430B62B378082B00D1A9
:1040E00086E001A933780B7005ABDF5D3800634BC8
:1040F00098473800624B98473189B3880B43B178B1
:10410000B279114319437378002B02D080231B012D
:1041100019432268D37B5BB2002BFBDB2980717BC8
:104120004B1E99418900B37B002B01D00123194319
:104130002268D37B5BB2002BFBDBFF232B710029B2
:1041400005D02268D37B5BB2002BFBDB6971B17AAF
:10415000F37A002B01D010231943337B002B01D0BD
:10416000202319432268D37B5BB2002BFBDBA971B0
:104170002268D37B5BB2002BFBDB2379042B3FD07F
:10418000082B5ED01720002B00D08BE7D37B5BB2CF
:10419000002BFBDB338D2B822268D37B5BB2002BA1
:1041A000FBDB738D2B832268D37B5BB2002BFBDBA5
:1041B000B38D6B83002075E702A901238B70002269
:1041C000CA70327E0A704B70307D2E4B984779E76B
:1041D00002A901238B700022CA702432B21812780F
:1041E0000A704B701F33F3181878264B98476DE709
:1041F000086A7A1C520003ABD35A03430B6270E780
:10420000D37B5BB2002BFBDB2823F35C2B7422688F
:10421000D37B5BB2002BFBDB2923F35C2B7522687D
:10422000D37B5BB2002BFBDB2A23F35C2B7622686B
:10423000D37B5BB2002BFBDB2B23F35C6B76002084
:1042400030E7D37B5BB2002BFBDBB36A2B612268C8
:10425000D37B5BB2002BFBDBF36AAB612268D37BC1
:104260005BB2002BFBDB336BEB6100201AE7C0462F
:1042700015400000240D002000040040895100007A
:10428000FD500000B1520000931C9B001950022AFF
:1042900009D0032A0CD0012393401A00037E134354
:1042A000037600207047037E102213430376F8E75D
:1042B000037E202213430376F3E7000070B58000ED
:1042C000164BC45823689D7B227E637E13401D409D
:1042D000EB0706D4AB070BD4EB0610D4AB0615D412
:1042E00070BD2000A3689847012322689373F1E70B
:1042F0002000E3689847022322689373ECE72000CC
:1043000023699847102322689373E7E720006369C5
:104310009847236820229A73E2E7C046240D0020C4
:1043200010B50020014B984710BDC046BD420000AB
:1043300010B50120014B984710BDC046BD4200009A
:1043400010B50220014B984710BDC046BD42000089
:10435000F0B5DE4657464E464546E0B591B00500FD
:104360000C00160029600800BA4B98470200236829
:104370000520DB0706D511B03CBC90469946A24605
:10438000AB46F0BD236817309B07F4D4B249086AE6
:10439000971C0123BB4003430B620FA92D27F35D3C
:1043A0000B701432D3B202931800AC4B98470298AA
:1043B000AB4B9847F05D0021AA4B9847F37A6B719D
:1043C0002423F35CAB712523F35CEB71F37E2B723A
:1043D000337F6B722B68984618009E4B98471430B9
:1043E00000220E2306A98C4663441A80328A029268
:1043F0008023DB019A4200D19AE00FD9C023DB0170
:10440000029A9A4200D18EE080231B029A4200D089
:104410001BE1032306930023079308E080239B01FD
:104420009A4200D011E1102306930F3B07933368A3
:104430000593F3689B4673690393337E04932623A5
:10444000F35C9A4673689946002B00D19CE0802368
:104450005B05994500D180E0737E002B02D0B37ECE
:10446000424693730E2306AA944663441B88424631
:104470009381059B5A461343039A13434A461343B9
:10448000029F1F43049B1B021F4353465B071F43AE
:104490002723F35C002B01D104331F43737E9B025F
:1044A000327F52021343727F120213432422B25C02
:1044B000520413432522B25C12041343B17AF27AF8
:1044C000114319433389FF2B00D181E0802252042C
:1044D000174319432C23F35C002B03D1624B9B78C9
:1044E0009B0701D580231F432A68D369002BFCD189
:1044F000434659602A68D369002BFCD143461F60AC
:104500000EAB80221A7000225A70DA709A70336BE8
:104510000A93736B0B93B36B0C93F36B02930D9332
:1045200000270AAE63E008230693073B07937EE764
:1045300033680593F3689B4673690393337E049352
:104540002623F35C9A4673689946002B18D0802383
:104550005B05994501D0002025E02723F35C002B63
:1045600000D079E7336A1F00C0B2404B9847010082
:104570000E2206AB9C46624438003D4B984712E041
:1045800008230693002307932723F35C002B0ED008
:10459000069B0093079B0E2206A98C466244B16AD3
:1045A000306A344FB847002800D0E4E654E7336A55
:1045B0001F00C0B22D4B98470100069B0093079B3C
:1045C0000E2206A88446624438002A4FB847EAE71C
:1045D000F37E002B00D17DE78023DB041F4379E7C6
:1045E0002000254B984707E00137042F0DD0F9B282
:1045F000BB0098590028F3D0431CF5D00EA90870D1
:10460000000CC0B21D4B9847EEE70023EB602B6116
:104610006B61AB61EB612B62AB626B620022EB857D
:10462000AB853033EA540133EA540133EA540133A1
:10463000EA542868074B984704001149114B9847E2
:10464000A400114BE550002095E6102306930023AB
:104650000793ECE6712D0000000400408951000032
:10466000FD500000292C000000200041D551000021
:104670006D2B0000952B0000752C0000B15200003E
:10468000F147000089490000300D0020C2791C2349
:10469000002A01D118007047C28D92B2173B002A40
:1046A000F8D1026811850221137E0B42FCD0002351
:1046B000F0E782791C23002A01D118007047828D0F
:1046C00092B2173B002AF8D10268107E4007F4D559
:1046D000538BDBB298061DD0980703D50223538372
:1046E0001833EAE7580703D5042353831A33E4E762
:1046F000D80703D5012353831233DEE7D80603D549
:10470000102353833233D8E79B0603D520235383EA
:104710002133D2E7138D0B800023CEE7F0B5CE46D0
:10472000474680B583B0050001911720002A04D1C7
:1047300003B00CBC90469946F0BDEB790530002BD8
:10474000F6D02C68013A93B2994600260127204BF7
:10475000984611E0731C9BB2019A915D6A79012A17
:1047600017D089B21E0028001A4B98474B46013BD0
:104770009BB29946434513D0237E3B42EAD1144B6A
:10478000227E3A42E6D1012B19D0013B002BF7D112
:10479000E0E70236B6B2019AD35C1B021943E2E7A6
:1047A000237E9B070DD40A4B0221227E0A420AD1A6
:1047B000012B0AD0013B002BF7D10020B8E71220D3
:1047C000B6E70020B4E70020B2E71220B0E7C04609
:1047D000FFFF00008D460000931C9B00C31859602A
:1047E0003021012393401A00435C13434354704724
:1047F000F8B58000624BC5582C68E369002BFCD1EA
:10480000237EA67D1E403023EB5C3122AF5C1F402F
:10481000F30722D5EB8D9BB2002B1CD0AA6A13782C
:10482000DBB2511CA962697901290ED09BB2DB056C
:10483000DB0D2385EB8D013B9BB2EB85002B0CD16F
:10484000013323750133A37507E0517809020B4347
:104850000232AA62EBE701232375B30706D50223D0
:10486000237500223133EA54FB071AD4730765D548
:10487000AB8D9BB2002B5FD0638BDBB21A0714D4D5
:104880003F221340002B34D09A0711D51A2232232D
:10489000EA54303B63837B0750D528006B69984707
:1048A0004CE02800EB689847E0E737221340E9E73F
:1048B0005A0705D51E223223EA542E3B6383EAE7CA
:1048C000DA0705D513223223EA54313B6383E2E74A
:1048D000DA0605D542223223EA54223B6383DAE723
:1048E00020221A42D7D021323223EA54123B63836A
:1048F000D1E7238DDB05DB0DDAB2696A0A706A6ADB
:10490000511C69626979012910D0AB8D013B9BB2C2
:10491000AB85002B12D10433237500222E33EA54C9
:10492000BB070BD528002B69984707E01B0A53707B
:104930006B6A01336B62E8E704232375F30604D541
:10494000102323752376FB060ED4B30604D520234B
:10495000237523763B070BD4330704D5082323752F
:104960002376BB0608D4F8BD2800EB699847ECE72E
:104970002800AB699847EFE72B6A28009847F2E7D1
:10498000300D00207047000030B50B4B1B78002B1A
:104990000ED10A4C0A4D25600A4B00221A60656050
:1049A0005A60A5609A60E560DA600132024B1A70C5
:1049B0008000024BC15030BDB8090020BC09002066
:1049C00085490000300D002010B582B001AC0923EC
:1049D0002370013363700133A3700133E370024B22
:1049E0009847205602B010BD712D000010B5024B43
:1049F0001B680020984710BDBC09002010B5024B71
:104A00005B680120984710BDBC09002010B5024B1F
:104A10009B680220984710BDBC09002010B5024BCE
:104A2000DB680320984710BDBC09002010B50B4B74
:104A30001C690B498A69986802439A60094B8B612B
:104A4000002C05D0206863689847A468002CF9D131
:104A5000024BD9689A688A439A6010BDE801002029
:104A600000040042FFFF0F0F064A136A02210B43A6
:104A700013620122044B1A7019000B781342FCD107
:104A80007047C046000400400004004270B580003A
:104A9000114BC45823689D79227E637E13401D40CC
:104AA000EB0704D4AB0709D4EB060ED470BD20008D
:104AB00063689847012322689371F3E72000A36895
:104AC0009847022322689371EEE7200063699847B4
:104AD000236810229A71E9E7400D002010B50020EC
:104AE000014B984710BDC0468D4A000070B50020AC
:104AF000084B98470500084CFA218900A047074B4E
:104B0000186007492800A047064B18600522064B8D
:104B10001A6070BD71500000D9540000FC010020E3
:104B200040420F000002002010E000E030B5084BCA
:104B30001C68084A002580214902013807D3002C4F
:104B4000FBD05460956013680B42FCD0F5E730BD94
:104B5000FC01002010E000E070B5184B1D885B8858
:104B60006B431824834201D2200070BD6B1E184293
:104B7000FAD1013C9542F7D3114B1B7D123CDB0768
:104B8000F2D52024FF340E4B1C83002A14D00123BD
:104B900098430023561E04E002339BB202309A422F
:104BA00008D90488A4B2CC54B342F5DACD18240A4B
:104BB0006C70F1E70024D7E70024D5E7CC0900208A
:104BC0000040004100B583B001AB80221A700A7822
:104BD0005A704A789A708A78DA701900014B9847AF
:104BE00003B000BDB1520000F8B50D008401054FBF
:104BF000054E7B68181940222900B0470528F8D0D7
:104C0000F8BDC046D4090020594B000010B590B043
:104C10000C00154B1A781F23002A02D1180010B07F
:104C200010BD114B9A7A18238242F7D9B0330E4A3D
:104C3000D35C002B03D08823D35C83420CD00A4B77
:104C40001818C07A6946094B98473C2201A92000F0
:104C5000074B98470023E1E73C2203498C312000B1
:104C6000034B98470023D9E7D4090020E94B000003
:104C700007570000704700000C4B1B68002B06D143
:104C8000EFF31083002B07D00022094B1A70074A5C
:104C9000136801331360704772B6BFF35F8F002251
:104CA000044B1A700132024B1A70F0E7A00A002080
:104CB000A40A002004020020084B1A68013A1A6076
:104CC0001B68002B09D1064B1B78002B05D0012255
:104CD000044B1A70BFF35F8F62B67047A00A0020C2
:104CE000A40A00200402002010B5082803D8800080
:104CF0001C4B1B589F46002032E01B4B18692FE0CD
:104D00001A4B1B6A9B059B0F1948D84028E0164B8D
:104D1000586925E0144B1B6800209B0720D51349D8
:104D20001022CB681A42FCD00F4B1A682423134080
:104D3000042B01D00F4813E000200F4B98470A4B7B
:104D40009B681B041B0C58430AE05023074AD35CA2
:104D500000205B0704D5044BD86801E080200002E6
:104D600010BDC046707F0000A80A00200008004067
:104D700000127A00006CDC02D551000070B50C49BD
:104D80000B6A047885784078012210408001402623
:104D9000B34303432A40D2018020834313430322B9
:104DA000224012020348034013430B6270BDC04609
:104DB00000080040FFFCFFFF082803D88000254BB7
:104DC0001B589F46172044E0234A136A02210B43D5
:104DD000136200203DE0204A936902210B43936156
:104DE000002036E01C4A138A02210B431382002064
:104DF0002FE0194A938A02210B439382002028E076
:104E000016490B68022213430B60134B9A84190056
:104E10000E32CB681A42FCD0104A91680E4BD96210
:104E200052689A6200229A8419001032CB681A42A2
:104E3000FCD00A4B1B689BB2074A9384002008E011
:104E4000054944228B5C022003438B54002000E080
:104E500000207047947F000000080040A80A00204E
:104E6000F0B5C64600B584B0C222D2002F4B9A607E
:104E70002F4A53681E218B43536001236A461370E7
:104E800000242C4DE0B26946A8470134252CF9D105
:104E900003A801258570002404704570264B9847AF
:104EA0000620264B9847264B98476B465C701C7231
:104EB0005C7203236A461370013301936946032031
:104EC000204FB8470320204EB0476B465C70062346
:104ED00098466B4642461A701C725C72802301939E
:104EE00069460420B8470420B04701956B465C70C2
:104EF00042461A701C725C7269460520B84705204C
:104F0000B047124B1C725C729C72DC7201956B464E
:104F10005C7042461A705C721D7269460020B84788
:104F20000020B04704B004BC9046F0BD000800402B
:104F300000400041895100007D4D0000B94D000046
:104F4000514F0000754F00002D500000000400403C
:104F5000064A936908210B4393610122044B1A709E
:104F600019000B781342FCD17047C0460004004082
:104F7000000C004070B5060004000D782D020543BA
:104F80004B78002B02D08023DB021D434B7A002B91
:104F900002D080231B031D434868012810D9431EFB
:104FA000184234D1022830D90223002201325B009A
:104FB0009842FBD812023243140080235B031D4346
:104FC0000B7A002B02D080239B031D43134A537896
:104FD0005BB2002BFBDB124B9847124B1E700F4A43
:104FE00053785BB2002BFBDB0C4B9C601A005378B0
:104FF0005BB2002BFBDB094A5368802149020B405E
:105000001D435560084B984770BD0022D2E704024B
:10501000344380239B021D43D2E7C046000C00406E
:10502000794C0000080C0040B94C000010B5040099
:105030000B4A53785BB2002BFBDB0A4B98470A4BB9
:105040001C70074A53785BB2002BFBDB044A5168A3
:1050500080235B020B435360044B984710BDC0464E
:10506000000C0040794C0000040C0040B94C0000DA
:1050700070B504001A4A53785BB2002BFBDB194B66
:105080009847194B1C70164A53785BB2002BFBDB18
:10509000134E7068C004C00E144B98470500124BA5
:1050A0001C707668F602F60F114B1C700C4A537890
:1050B0005BB2002BFBDB0A4B9C682402240C0D4BDB
:1050C0009847002E07D1012C07D9210028000A4B50
:1050D0009847050001E00134E540280070BDC04656
:1050E000000C0040794C0000040C0040E94C00002A
:1050F000080C0040B94C0000D954000010B5040061
:10510000064B9847064B1C70064A53888021C901FC
:105110000B435380044B984710BDC046794C0000A8
:10512000020C0040000C0040B94C000010B5040017
:105130000F4B98470F4B1C700F4A53881B05180FD5
:1051400053880E490B40538053880D490B405380C0
:1051500011008022D2014B881342FCD106494A88B3
:1051600003020648024013434B80064B984710BD8C
:10517000794C0000020C0040000C0040FFF0FFFFE3
:10518000FFBFFFFFB94C000010B50C7824020443A8
:10519000024B9847A4B2024B5C8010BD2D51000019
:1051A000000C004010B50400064B9847064B1C70DD
:1051B000064A5388C02109020B435380044B984789
:1051C00010BDC046794C0000020C0040000C0040AD
:1051D000B94C000010B50400064B9847064B1C70F4
:1051E000064B5C882405240F054B98472000054B8F
:1051F000984710BD794C0000020C0040000C0040A4
:10520000B94C00007150000030B5D378002B35D177
:105210001378802B29D01B06802464022343547802
:105220000225AC4306D19478002C20D18024A4021E
:10523000234341605478013C012C1CD90D042D0CF2
:10524000A024E4052C431C4384620D0CD0242406C6
:105250002C431C438462D478002C22D15B031CD5E0
:105260009378012B1ED0416117E00023D7E7C024BB
:10527000E4022343DDE70D4C2340DFE741600C04EB
:10528000240CA023DB05234383620C0CD0231B06D4
:1052900023438362D378002B03D15378013B012B46
:1052A00002D930BD8161F8E78160FAE7FFFFFBFFBB
:1052B00010B50A00C1090023002904D14309DB010C
:1052C00005498C4663441F24204001218140180079
:1052D000024B984710BDC0460044004109520000EF
:1052E0007047000010B5054B9847054B9847054B94
:1052F0009847054B9847054B984710BD614E0000F5
:10530000754C0000694A000049240000E152000089
:10531000FEE70000F8B52A4A2A4B9A4211D01A003B
:10532000294B9A420DD2294A03339B1A9B08013319
:105330009B000022234822498C58845004329A4210
:10534000FAD1234A234B9A420AD2D34321495B180C
:1053500003218B4304339B18002102C29342FCD1EA
:105360001D4AFF211D4B8B439360FD3990235B0049
:105370001B4AD1501B4AD3780325AB430224234355
:10538000D370D3780C27BB4308263343D370164B16
:10539000987B30229043202210439873997BB94325
:1053A000314399739A7BAA4322439A730F4A5368F5
:1053B00080210B4353600E4B98470E4B9847FEE7F6
:1053C000B881000000000020D80300200400002065
:1053D000E0030020480D002000ED00E00000000088
:1053E0000070004100500041004800410040004171
:1053F000A1560000415400000300064A1268002A2A
:1054000004D0044A1068C318136070470249014A67
:105410001160F6E7C00A0020481D0020012040422C
:10542000704780239B014B6000207047012070472C
:105430000020704700BEFEE77047012040427047E1
:1054400070B5154B9847154B9847154B00221A70AD
:105450005A709A70DA7001241C71124B9847124BE3
:105460009847124B9847124B9847124B9847124B4C
:105470009847124B9847124B1C70BFF35F8F62B670
:10548000104B9847104B9847104E114D114CB04798
:10549000A847A047FBE7C046E5520000ED4A0000E0
:1054A0000C0C0020A1300000752F00001914000022
:1054B000490A0000011900002908000081030000CA
:1054C00004020020DD2300004D010000C523000080
:1054D000C5310000151C0000002243088B4274D324
:1054E00003098B425FD3030A8B4244D3030B8B42E5
:1054F00028D3030C8B420DD3FF22090212BA030CEE
:105500008B4202D31212090265D0030B8B4219D3CE
:1055100000E0090AC30B8B4201D3CB03C01A5241EE
:10552000830B8B4201D38B03C01A5241430B8B4236
:1055300001D34B03C01A5241030B8B4201D30B031F
:10554000C01A5241C30A8B4201D3CB02C01A524146
:10555000830A8B4201D38B02C01A5241430A8B4209
:1055600001D34B02C01A5241030A8B4201D30B02F2
:10557000C01A5241CDD2C3098B4201D3CB01C01A0C
:10558000524183098B4201D38B01C01A5241430916
:105590008B4201D34B01C01A524103098B4201D304
:1055A0000B01C01A5241C3088B4201D3CB00C01A71
:1055B000524183088B4201D38B00C01A52414308E9
:1055C0008B4201D34B00C01A5241411A00D201460E
:1055D000524110467047FFE701B5002000F006F881
:1055E00002BDC0460029F7D076E770477047C04635
:1055F000F0B5CE46474615042D0C2E0080B50704A5
:10560000140C3F0C9946030C7E435D436743634390
:105610007F19340CE4199C46A54203D980235B0210
:105620009846C4444B46514343433604360C250C3C
:1056300024046544A4195918491920000CBC90464B
:105640009946F0BD30B51C00094B05001B6885B0BC
:10565000D868084B002A01D1074B1A000292019327
:1056600000912B002200054900F00AF800F0A4FD8B
:1056700008020020B87F0000F37F0000C57F000013
:105680000EB403B5010003AB044804CB00680193DA
:1056900000F072F802B008BC03B0184708020020FE
:1056A00070B500260C4D0D4C641BA410A64209D108
:1056B000002602F071FD0A4D0A4C641BA410A6429C
:1056C00005D170BDB300EB5898470136EEE7B30043
:1056D000EB5898470136F2E7A4810000A48100004E
:1056E000A4810000A881000030B50024A24201D1AD
:1056F000002005E0035D651C0C5DA34201D0181B72
:1057000030BD2C00F2E7002310B59A4200D110BD45
:10571000CC5CC4540133F8E703008218934200D1F3
:10572000704719700133F9E7936810B5013B936036
:10573000002B05DA9469A34208DBCBB20A2B05D013
:105740001368581C10601970C8B210BD00F068FCD6
:10575000FBE7F8B506000F001400D518AC4201D1E4
:10576000002007E021783A003000FFF7DDFF013428
:10577000431CF3D1F8BD0000F0B59FB006000F0048
:1057800014000593002804D08369002B01D100F098
:1057900013FE7F4B9F425CD17768BB891B0762D5A4
:1057A0003B69002B5FD0002306AD6B6120336B7625
:1057B0001033AB760294029C2378002B5DD1029BC0
:1057C000E31A04930DD0049B029A39003000FFF7CE
:1057D000C0FF431C00D1CCE06A69049B944663443B
:1057E0006B612378002B00D1C3E0012200235242D9
:1057F0006A6002A95432521801342B60EB60AB602E
:105800001370AB6521780522624800F0F5FE631C39
:105810009C46002835D12968CB0604D5532302AA1B
:1058200020309B1818700B0704D553232B2002AA95
:105830009B18187023782A2B2CD000200A21099B52
:105840002278303A092A00D86BE000282AD0099340
:1058500028E0514B9F4201D1B7689EE74F4B9F42D2
:105860009BD1F76899E73900300000F02FFC002841
:1058700099D0012040421FB0F0BD252B9FD00134AC
:105880009AE7444B2968C01A012383400B432B60DD
:105890006446B7E7059B181D1B680590002B3ADB93
:1058A0000993644623782E2B0BD16378621C2A2B34
:1058B0003FD1059B02341A1D1B680592002B35DB76
:1058C000079321780322364800F096FE002807D07F
:1058D000334B2A68C01A4023834013432B600134A2
:1058E0002178631C06222F480293297600F084FE5B
:1058F000002844D02C4B002B2FD12968059B072270
:10590000C90528D59B189343083305936B69039AFF
:105910009B186B614FE75B42EB6002230B432B60EC
:10592000BFE74B4301349B18012089E701235B4209
:10593000C6E7002314000A201A006B602178303972
:10594000092903D9002BBCD00792BAE7424301349E
:1059500052180123F2E70733D5E705AB00933A006D
:10596000124B2900300000E000BF0390039B01337D
:10597000CCD1BB895B0600D57BE70B987BE705ABF9
:1059800000933A00094B2900300000F07FF8ECE763
:105990004C800000F87F00006C8000002C8000002C
:1059A000FE7F00000280000000000000535700004E
:1059B000F7B5150001938A680B6900900C009342BB
:1059C00000DA130022002B6043321278002A01D043
:1059D00001332B6023689B0602D52B6802332B60B2
:1059E000062723681F4027D0230043331B785A1E05
:1059F00093412268920630D42200019943320098E4
:105A0000089EB047431C25D0062320682A68E16819
:105A100003400025042B03D18D1AEB43DB171D40F7
:105A2000A3682269934201DD9B1AED180027BD424D
:105A300020D1002010E00137E3682A689B1A9F42BA
:105A4000D2DA22000123193201990098089EB0474A
:105A5000431CF0D101204042FEBD3020E11843310B
:105A6000087021005A1C45310978A21843320233CC
:105A70001170C1E7220001231A3201990098089E93
:105A8000B047431CE6D00137D1E70000F0B58BB03A
:105A900006920A0043320793059004920A7E0C0096
:105AA000109B6E2A00D18FE017D8632A2CD008D81B
:105AB000002A00D199E0582A54D02600423632708C
:105AC00029E0642A01D0692AF7D121681A680806FA
:105AD00023D5111D1960156825E0732A00D188E0CF
